{
  "_format": "hh-sol-artifact-1",
  "contractName": "Invite1155",
  "sourceName": "contracts/Invite1155.sol",
  "abi": [
    {
      "anonymous": false,
      "inputs": [
        {
          "indexed": true,
          "internalType": "address",
          "name": "account",
          "type": "address"
        },
        {
          "indexed": true,
          "internalType": "address",
          "name": "operator",
          "type": "address"
        },
        {
          "indexed": false,
          "internalType": "bool",
          "name": "approved",
          "type": "bool"
        }
      ],
      "name": "ApprovalForAll",
      "type": "event"
    },
    {
      "anonymous": false,
      "inputs": [
        {
          "indexed": true,
          "internalType": "bytes32",
          "name": "role",
          "type": "bytes32"
        },
        {
          "indexed": true,
          "internalType": "bytes32",
          "name": "previousAdminRole",
          "type": "bytes32"
        },
        {
          "indexed": true,
          "internalType": "bytes32",
          "name": "newAdminRole",
          "type": "bytes32"
        }
      ],
      "name": "RoleAdminChanged",
      "type": "event"
    },
    {
      "anonymous": false,
      "inputs": [
        {
          "indexed": true,
          "internalType": "bytes32",
          "name": "role",
          "type": "bytes32"
        },
        {
          "indexed": true,
          "internalType": "address",
          "name": "account",
          "type": "address"
        },
        {
          "indexed": true,
          "internalType": "address",
          "name": "sender",
          "type": "address"
        }
      ],
      "name": "RoleGranted",
      "type": "event"
    },
    {
      "anonymous": false,
      "inputs": [
        {
          "indexed": true,
          "internalType": "bytes32",
          "name": "role",
          "type": "bytes32"
        },
        {
          "indexed": true,
          "internalType": "address",
          "name": "account",
          "type": "address"
        },
        {
          "indexed": true,
          "internalType": "address",
          "name": "sender",
          "type": "address"
        }
      ],
      "name": "RoleRevoked",
      "type": "event"
    },
    {
      "anonymous": false,
      "inputs": [
        {
          "indexed": true,
          "internalType": "address",
          "name": "operator",
          "type": "address"
        },
        {
          "indexed": true,
          "internalType": "address",
          "name": "from",
          "type": "address"
        },
        {
          "indexed": true,
          "internalType": "address",
          "name": "to",
          "type": "address"
        },
        {
          "indexed": false,
          "internalType": "uint256[]",
          "name": "ids",
          "type": "uint256[]"
        },
        {
          "indexed": false,
          "internalType": "uint256[]",
          "name": "values",
          "type": "uint256[]"
        }
      ],
      "name": "TransferBatch",
      "type": "event"
    },
    {
      "anonymous": false,
      "inputs": [
        {
          "indexed": true,
          "internalType": "address",
          "name": "operator",
          "type": "address"
        },
        {
          "indexed": true,
          "internalType": "address",
          "name": "from",
          "type": "address"
        },
        {
          "indexed": true,
          "internalType": "address",
          "name": "to",
          "type": "address"
        },
        {
          "indexed": false,
          "internalType": "uint256",
          "name": "id",
          "type": "uint256"
        },
        {
          "indexed": false,
          "internalType": "uint256",
          "name": "value",
          "type": "uint256"
        }
      ],
      "name": "TransferSingle",
      "type": "event"
    },
    {
      "anonymous": false,
      "inputs": [
        {
          "indexed": false,
          "internalType": "string",
          "name": "value",
          "type": "string"
        },
        {
          "indexed": true,
          "internalType": "uint256",
          "name": "id",
          "type": "uint256"
        }
      ],
      "name": "URI",
      "type": "event"
    },
    {
      "inputs": [],
      "name": "DEFAULT_ADMIN_ROLE",
      "outputs": [
        {
          "internalType": "bytes32",
          "name": "",
          "type": "bytes32"
        }
      ],
      "stateMutability": "view",
      "type": "function"
    },
    {
      "inputs": [
        {
          "internalType": "address",
          "name": "account",
          "type": "address"
        },
        {
          "internalType": "uint256",
          "name": "id",
          "type": "uint256"
        }
      ],
      "name": "balanceOf",
      "outputs": [
        {
          "internalType": "uint256",
          "name": "",
          "type": "uint256"
        }
      ],
      "stateMutability": "view",
      "type": "function"
    },
    {
      "inputs": [
        {
          "internalType": "address[]",
          "name": "accounts",
          "type": "address[]"
        },
        {
          "internalType": "uint256[]",
          "name": "ids",
          "type": "uint256[]"
        }
      ],
      "name": "balanceOfBatch",
      "outputs": [
        {
          "internalType": "uint256[]",
          "name": "",
          "type": "uint256[]"
        }
      ],
      "stateMutability": "view",
      "type": "function"
    },
    {
      "inputs": [
        {
          "internalType": "bytes32",
          "name": "role",
          "type": "bytes32"
        }
      ],
      "name": "getRoleAdmin",
      "outputs": [
        {
          "internalType": "bytes32",
          "name": "",
          "type": "bytes32"
        }
      ],
      "stateMutability": "view",
      "type": "function"
    },
    {
      "inputs": [
        {
          "internalType": "bytes32",
          "name": "role",
          "type": "bytes32"
        },
        {
          "internalType": "address",
          "name": "account",
          "type": "address"
        }
      ],
      "name": "grantRole",
      "outputs": [],
      "stateMutability": "nonpayable",
      "type": "function"
    },
    {
      "inputs": [
        {
          "internalType": "bytes32",
          "name": "role",
          "type": "bytes32"
        },
        {
          "internalType": "address",
          "name": "account",
          "type": "address"
        }
      ],
      "name": "hasRole",
      "outputs": [
        {
          "internalType": "bool",
          "name": "",
          "type": "bool"
        }
      ],
      "stateMutability": "view",
      "type": "function"
    },
    {
      "inputs": [
        {
          "internalType": "string",
          "name": "baseTokenURI",
          "type": "string"
        }
      ],
      "name": "initialize",
      "outputs": [],
      "stateMutability": "nonpayable",
      "type": "function"
    },
    {
      "inputs": [
        {
          "internalType": "address",
          "name": "account",
          "type": "address"
        },
        {
          "internalType": "address",
          "name": "operator",
          "type": "address"
        }
      ],
      "name": "isApprovedForAll",
      "outputs": [
        {
          "internalType": "bool",
          "name": "",
          "type": "bool"
        }
      ],
      "stateMutability": "view",
      "type": "function"
    },
    {
      "inputs": [
        {
          "internalType": "uint256",
          "name": "_tokenId",
          "type": "uint256"
        }
      ],
      "name": "isRedeemed",
      "outputs": [
        {
          "internalType": "bool",
          "name": "",
          "type": "bool"
        }
      ],
      "stateMutability": "view",
      "type": "function"
    },
    {
      "inputs": [
        {
          "internalType": "uint256",
          "name": "tokenId",
          "type": "uint256"
        },
        {
          "internalType": "address",
          "name": "redeemer",
          "type": "address"
        }
      ],
      "name": "isRedeemedBy",
      "outputs": [
        {
          "internalType": "bool",
          "name": "",
          "type": "bool"
        }
      ],
      "stateMutability": "view",
      "type": "function"
    },
    {
      "inputs": [
        {
          "internalType": "address",
          "name": "to",
          "type": "address"
        },
        {
          "internalType": "uint256",
          "name": "tokenId",
          "type": "uint256"
        },
        {
          "internalType": "uint256",
          "name": "amount",
          "type": "uint256"
        }
      ],
      "name": "mint",
      "outputs": [],
      "stateMutability": "nonpayable",
      "type": "function"
    },
    {
      "inputs": [
        {
          "internalType": "address",
          "name": "to",
          "type": "address"
        },
        {
          "internalType": "uint256[]",
          "name": "ids",
          "type": "uint256[]"
        },
        {
          "internalType": "uint256[]",
          "name": "amounts",
          "type": "uint256[]"
        }
      ],
      "name": "mintBatch",
      "outputs": [],
      "stateMutability": "nonpayable",
      "type": "function"
    },
    {
      "inputs": [
        {
          "internalType": "address[]",
          "name": "tos",
          "type": "address[]"
        },
        {
          "internalType": "uint256[]",
          "name": "ids",
          "type": "uint256[]"
        },
        {
          "internalType": "uint256[]",
          "name": "amounts",
          "type": "uint256[]"
        }
      ],
      "name": "mintToMany",
      "outputs": [],
      "stateMutability": "nonpayable",
      "type": "function"
    },
    {
      "inputs": [
        {
          "internalType": "uint256",
          "name": "_tokenId",
          "type": "uint256"
        }
      ],
      "name": "redeem",
      "outputs": [],
      "stateMutability": "nonpayable",
      "type": "function"
    },
    {
      "inputs": [
        {
          "internalType": "bytes32",
          "name": "role",
          "type": "bytes32"
        },
        {
          "internalType": "address",
          "name": "account",
          "type": "address"
        }
      ],
      "name": "renounceRole",
      "outputs": [],
      "stateMutability": "nonpayable",
      "type": "function"
    },
    {
      "inputs": [
        {
          "internalType": "bytes32",
          "name": "role",
          "type": "bytes32"
        },
        {
          "internalType": "address",
          "name": "account",
          "type": "address"
        }
      ],
      "name": "revokeRole",
      "outputs": [],
      "stateMutability": "nonpayable",
      "type": "function"
    },
    {
      "inputs": [
        {
          "internalType": "address",
          "name": "from",
          "type": "address"
        },
        {
          "internalType": "address",
          "name": "to",
          "type": "address"
        },
        {
          "internalType": "uint256[]",
          "name": "ids",
          "type": "uint256[]"
        },
        {
          "internalType": "uint256[]",
          "name": "amounts",
          "type": "uint256[]"
        },
        {
          "internalType": "bytes",
          "name": "data",
          "type": "bytes"
        }
      ],
      "name": "safeBatchTransferFrom",
      "outputs": [],
      "stateMutability": "nonpayable",
      "type": "function"
    },
    {
      "inputs": [
        {
          "internalType": "address",
          "name": "from",
          "type": "address"
        },
        {
          "internalType": "address",
          "name": "to",
          "type": "address"
        },
        {
          "internalType": "uint256",
          "name": "id",
          "type": "uint256"
        },
        {
          "internalType": "uint256",
          "name": "amount",
          "type": "uint256"
        },
        {
          "internalType": "bytes",
          "name": "data",
          "type": "bytes"
        }
      ],
      "name": "safeTransferFrom",
      "outputs": [],
      "stateMutability": "nonpayable",
      "type": "function"
    },
    {
      "inputs": [
        {
          "internalType": "address",
          "name": "operator",
          "type": "address"
        },
        {
          "internalType": "bool",
          "name": "approved",
          "type": "bool"
        }
      ],
      "name": "setApprovalForAll",
      "outputs": [],
      "stateMutability": "nonpayable",
      "type": "function"
    },
    {
      "inputs": [
        {
          "internalType": "bytes4",
          "name": "interfaceId",
          "type": "bytes4"
        }
      ],
      "name": "supportsInterface",
      "outputs": [
        {
          "internalType": "bool",
          "name": "",
          "type": "bool"
        }
      ],
      "stateMutability": "view",
      "type": "function"
    },
    {
      "inputs": [
        {
          "internalType": "uint256",
          "name": "",
          "type": "uint256"
        }
      ],
      "name": "uri",
      "outputs": [
        {
          "internalType": "string",
          "name": "",
          "type": "string"
        }
      ],
      "stateMutability": "view",
      "type": "function"
    }
  ],
  "bytecode": "0x608060405234801561001057600080fd5b506124ac806100206000396000f3fe608060405234801561001057600080fd5b50600436106101365760003560e01c80634e1273f4116100b8578063d547741f1161007c578063d547741f146102d0578063d81d0a15146102e3578063db006a75146102f6578063e985e9c514610309578063f242432a14610345578063f62d18881461035857600080fd5b80634e1273f41461025357806391d1485414610273578063a217fddf14610286578063a22cb4651461028e578063c71679b5146102a157600080fd5b806329699c0a116100ff57806329699c0a146101dc5780632eb2c2d6146101ef5780632f2ff15d1461020257806332d33cd01461021557806336568abe1461024057600080fd5b8062fdd58e1461013b57806301ffc9a7146101615780630e89341c14610184578063156e29f6146101a4578063248a9ca3146101b9575b600080fd5b61014e610149366004611cff565b61036b565b6040519081526020015b60405180910390f35b61017461016f366004611e4b565b610404565b6040519015158152602001610158565b610197610192366004611e0f565b610415565b6040516101589190612096565b6101b76101b2366004611d29565b6104a9565b005b61014e6101c7366004611e0f565b60009081526065602052604090206001015490565b6101b76101ea366004611dc0565b6104f3565b6101b76101fd366004611b40565b6105f7565b6101b7610210366004611e28565b610687565b610174610223366004611e0f565b600090815260c960205260409020546001600160a01b0316151590565b6101b761024e366004611e28565b6106b2565b610266610261366004611d5c565b610730565b6040516101589190612055565b610174610281366004611e28565b61085a565b61014e600081565b6101b761029c366004611cc3565b610885565b6101746102af366004611e28565b600091825260c96020526040909120546001600160a01b0391821691161490565b6101b76102de366004611e28565b61095c565b6101b76102f1366004611c4f565b610982565b6101b7610304366004611e0f565b6109c5565b610174610317366004611b0d565b6001600160a01b03918216600090815260986020908152604080832093909416825291909152205460ff1690565b6101b7610353366004611bea565b610a44565b6101b7610366366004611e85565b610acb565b60006001600160a01b0383166103dc5760405162461bcd60e51b815260206004820152602b60248201527f455243313135353a2062616c616e636520717565727920666f7220746865207a60448201526a65726f206164647265737360a81b60648201526084015b60405180910390fd5b5060009081526097602090815260408083206001600160a01b03949094168352929052205490565b600061040f82610b40565b92915050565b606060998054610424906122f5565b80601f0160208091040260200160405190810160405280929190818152602001828054610450906122f5565b801561049d5780601f106104725761010080835404028352916020019161049d565b820191906000526020600020905b81548152906001019060200180831161048057829003601f168201915b50505050509050919050565b60006104b58133610b80565b6040516001600160601b03193360601b1660208201526104ed908590859085906034015b604051602081830303815290604052610be4565b50505050565b60006104ff8133610b80565b82518451148015610511575081518451145b61055d5760405162461bcd60e51b815260206004820152601e60248201527f496e766974653a204d69736d6174636865642061727261792073697a6573000060448201526064016103d3565b60005b84518110156105f0576105de85828151811061057e5761057e61238e565b60200260200101518583815181106105985761059861238e565b60200260200101518584815181106105b2576105b261238e565b6020026020010151336040516020016104d9919060609190911b6001600160601b031916815260140190565b806105e88161235d565b915050610560565b5050505050565b6001600160a01b03851633148061061357506106138533610317565b61067a5760405162461bcd60e51b815260206004820152603260248201527f455243313135353a207472616e736665722063616c6c6572206973206e6f74206044820152711bdddb995c881b9bdc88185c1c1c9bdd995960721b60648201526084016103d3565b6105f08585858585610cbc565b6000828152606560205260409020600101546106a38133610b80565b6106ad8383610e69565b505050565b6001600160a01b03811633146107225760405162461bcd60e51b815260206004820152602f60248201527f416363657373436f6e74726f6c3a2063616e206f6e6c792072656e6f756e636560448201526e103937b632b9903337b91039b2b63360891b60648201526084016103d3565b61072c8282610eef565b5050565b606081518351146107955760405162461bcd60e51b815260206004820152602960248201527f455243313135353a206163636f756e747320616e6420696473206c656e677468604482015268040dad2e6dac2e8c6d60bb1b60648201526084016103d3565b6000835167ffffffffffffffff8111156107b1576107b16123a4565b6040519080825280602002602001820160405280156107da578160200160208202803683370190505b50905060005b8451811015610852576108258582815181106107fe576107fe61238e565b60200260200101518583815181106108185761081861238e565b602002602001015161036b565b8282815181106108375761083761238e565b602090810291909101015261084b8161235d565b90506107e0565b509392505050565b60009182526065602090815260408084206001600160a01b0393909316845291905290205460ff1690565b336001600160a01b03831614156108f05760405162461bcd60e51b815260206004820152602960248201527f455243313135353a2073657474696e6720617070726f76616c20737461747573604482015268103337b91039b2b63360b91b60648201526084016103d3565b3360008181526098602090815260408083206001600160a01b03871680855290835292819020805460ff191686151590811790915590519081529192917f17307eab39ab6107e8899845ad3d59bd9653f200f220920489ca2b5937696c31910160405180910390a35050565b6000828152606560205260409020600101546109788133610b80565b6106ad8383610eef565b600061098e8133610b80565b6040516001600160601b03193360601b1660208201526104ed90859085908590603401604051602081830303815290604052610f56565b60006109d1338361036b565b11610a385760405162461bcd60e51b815260206004820152603160248201527f496e766974653a207472616e736665722063616c6c6572206973206e6f74206f6044820152701ddb995c881b9bdc88185c1c1c9bdd9959607a1b60648201526084016103d3565b610a41816110b1565b50565b6001600160a01b038516331480610a605750610a608533610317565b610abe5760405162461bcd60e51b815260206004820152602960248201527f455243313135353a2063616c6c6572206973206e6f74206f776e6572206e6f7260448201526808185c1c1c9bdd995960ba1b60648201526084016103d3565b6105f085858585856110f3565b600054610100900460ff1680610ae4575060005460ff16155b610b005760405162461bcd60e51b81526004016103d390612136565b600054610100900460ff16158015610b22576000805461ffff19166101011790555b610b2b82611214565b801561072c576000805461ff00191690555050565b60006001600160e01b03198216636cdb3d1360e11b1480610b7157506001600160e01b031982166303a24d0760e21b145b8061040f575061040f82611294565b610b8a828261085a565b61072c57610ba2816001600160a01b031660146112c9565b610bad8360206112c9565b604051602001610bbe929190611f3d565b60408051601f198184030181529082905262461bcd60e51b82526103d391600401612096565b6001600160a01b038416610c0a5760405162461bcd60e51b81526004016103d390612216565b33610c2a81600087610c1b8861146c565b610c248861146c565b876114b7565b60008481526097602090815260408083206001600160a01b038916845290915281208054859290610c5c90849061227b565b909155505060408051858152602081018590526001600160a01b0380881692600092918516917fc3d58168c5ae7397731d063d5bbf3d657854427343f4c083240f7aacaa2d0f62910160405180910390a46105f081600087878787611573565b8151835114610cdd5760405162461bcd60e51b81526004016103d3906121ce565b6001600160a01b038416610d035760405162461bcd60e51b81526004016103d3906120f1565b33610d128187878787876114b7565b60005b8451811015610dfb576000858281518110610d3257610d3261238e565b602002602001015190506000858381518110610d5057610d5061238e565b60209081029190910181015160008481526097835260408082206001600160a01b038e168352909352919091205490915081811015610da15760405162461bcd60e51b81526004016103d390612184565b60008381526097602090815260408083206001600160a01b038e8116855292528083208585039055908b16825281208054849290610de090849061227b565b9250508190555050505080610df49061235d565b9050610d15565b50846001600160a01b0316866001600160a01b0316826001600160a01b03167f4a39dc06d4c0dbc64b70af90fd698a233a518aa5d07e595d983b8c0526c8f7fb8787604051610e4b929190612068565b60405180910390a4610e618187878787876116de565b505050505050565b610e73828261085a565b61072c5760008281526065602090815260408083206001600160a01b03851684529091529020805460ff19166001179055610eab3390565b6001600160a01b0316816001600160a01b0316837f2f8788117e7eff1d82e926ec794901d17c78024a50270940304540a733656f0d60405160405180910390a45050565b610ef9828261085a565b1561072c5760008281526065602090815260408083206001600160a01b0385168085529252808320805460ff1916905551339285917ff6391f5c32d9c69d2a47ea670b442974b53935d1edc7fd64eb21e047a839171b9190a45050565b6001600160a01b038416610f7c5760405162461bcd60e51b81526004016103d390612216565b8151835114610f9d5760405162461bcd60e51b81526004016103d3906121ce565b33610fad816000878787876114b7565b60005b845181101561104957838181518110610fcb57610fcb61238e565b602002602001015160976000878481518110610fe957610fe961238e565b602002602001015181526020019081526020016000206000886001600160a01b03166001600160a01b031681526020019081526020016000206000828254611031919061227b565b909155508190506110418161235d565b915050610fb0565b50846001600160a01b031660006001600160a01b0316826001600160a01b03167f4a39dc06d4c0dbc64b70af90fd698a233a518aa5d07e595d983b8c0526c8f7fb878760405161109a929190612068565b60405180910390a46105f0816000878787876116de565b600081815260c960205260409020546001600160a01b0316156110d357600080fd5b600090815260c96020526040902080546001600160a01b03191633179055565b6001600160a01b0384166111195760405162461bcd60e51b81526004016103d3906120f1565b33611129818787610c1b8861146c565b60008481526097602090815260408083206001600160a01b038a1684529091529020548381101561116c5760405162461bcd60e51b81526004016103d390612184565b60008581526097602090815260408083206001600160a01b038b81168552925280832087850390559088168252812080548692906111ab90849061227b565b909155505060408051868152602081018690526001600160a01b03808916928a821692918616917fc3d58168c5ae7397731d063d5bbf3d657854427343f4c083240f7aacaa2d0f62910160405180910390a461120b828888888888611573565b50505050505050565b600054610100900460ff168061122d575060005460ff16155b6112495760405162461bcd60e51b81526004016103d390612136565b600054610100900460ff1615801561126b576000805461ffff19166101011790555b6112736117a8565b61127b6117a8565b61128482611813565b61128c6117a8565b610b2b611873565b60006001600160e01b03198216637965db0b60e01b148061040f57506301ffc9a760e01b6001600160e01b031983161461040f565b606060006112d8836002612293565b6112e390600261227b565b67ffffffffffffffff8111156112fb576112fb6123a4565b6040519080825280601f01601f191660200182016040528015611325576020820181803683370190505b509050600360fc1b816000815181106113405761134061238e565b60200101906001600160f81b031916908160001a905350600f60fb1b8160018151811061136f5761136f61238e565b60200101906001600160f81b031916908160001a9053506000611393846002612293565b61139e90600161227b565b90505b6001811115611416576f181899199a1a9b1b9c1cb0b131b232b360811b85600f16601081106113d2576113d261238e565b1a60f81b8282815181106113e8576113e861238e565b60200101906001600160f81b031916908160001a90535060049490941c9361140f816122de565b90506113a1565b5083156114655760405162461bcd60e51b815260206004820181905260248201527f537472696e67733a20686578206c656e67746820696e73756666696369656e7460448201526064016103d3565b9392505050565b604080516001808252818301909252606091600091906020808301908036833701905050905082816000815181106114a6576114a661238e565b602090810291909101015292915050565b60005b835181101561156d576114fd8482815181106114d8576114d861238e565b6020026020010151600090815260c960205260409020546001600160a01b0316151590565b8061150f57506001600160a01b038616155b61155b5760405162461bcd60e51b815260206004820152601a60248201527f496e766974653a20546f6b656e206e6f742072656465656d656400000000000060448201526064016103d3565b806115658161235d565b9150506114ba565b50610e61565b6001600160a01b0384163b15610e615760405163f23a6e6160e01b81526001600160a01b0385169063f23a6e61906115b79089908990889088908890600401612010565b602060405180830381600087803b1580156115d157600080fd5b505af1925050508015611601575060408051601f3d908101601f191682019092526115fe91810190611e68565b60015b6116ae5761160d6123ba565b806308c379a0141561164757506116226123d6565b8061162d5750611649565b8060405162461bcd60e51b81526004016103d39190612096565b505b60405162461bcd60e51b815260206004820152603460248201527f455243313135353a207472616e7366657220746f206e6f6e20455243313135356044820152732932b1b2b4bb32b91034b6b83632b6b2b73a32b960611b60648201526084016103d3565b6001600160e01b0319811663f23a6e6160e01b1461120b5760405162461bcd60e51b81526004016103d3906120a9565b6001600160a01b0384163b15610e615760405163bc197c8160e01b81526001600160a01b0385169063bc197c81906117229089908990889088908890600401611fb2565b602060405180830381600087803b15801561173c57600080fd5b505af192505050801561176c575060408051601f3d908101601f1916820190925261176991810190611e68565b60015b6117785761160d6123ba565b6001600160e01b0319811663bc197c8160e01b1461120b5760405162461bcd60e51b81526004016103d3906120a9565b600054610100900460ff16806117c1575060005460ff16155b6117dd5760405162461bcd60e51b81526004016103d390612136565b600054610100900460ff161580156117ff576000805461ffff19166101011790555b8015610a41576000805461ff001916905550565b600054610100900460ff168061182c575060005460ff16155b6118485760405162461bcd60e51b81526004016103d390612136565b600054610100900460ff1615801561186a576000805461ffff19166101011790555b610b2b826118d5565b600054610100900460ff168061188c575060005460ff16155b6118a85760405162461bcd60e51b81526004016103d390612136565b600054610100900460ff161580156118ca576000805461ffff19166101011790555b6117ff6000336118e8565b805161072c9060999060208401906118f2565b61072c8282610e69565b8280546118fe906122f5565b90600052602060002090601f0160209004810192826119205760008555611966565b82601f1061193957805160ff1916838001178555611966565b82800160010185558215611966579182015b8281111561196657825182559160200191906001019061194b565b50611972929150611976565b5090565b5b808211156119725760008155600101611977565b600067ffffffffffffffff8311156119a5576119a56123a4565b6040516119bc601f8501601f191660200182612330565b8091508381528484840111156119d157600080fd5b83836020830137600060208583010152509392505050565b80356001600160a01b0381168114611a0057600080fd5b919050565b600082601f830112611a1657600080fd5b81356020611a2382612257565b604051611a308282612330565b8381528281019150858301600585901b87018401881015611a5057600080fd5b60005b85811015611a7657611a64826119e9565b84529284019290840190600101611a53565b5090979650505050505050565b600082601f830112611a9457600080fd5b81356020611aa182612257565b604051611aae8282612330565b8381528281019150858301600585901b87018401881015611ace57600080fd5b60005b85811015611a7657813584529284019290840190600101611ad1565b600082601f830112611afe57600080fd5b6114658383356020850161198b565b60008060408385031215611b2057600080fd5b611b29836119e9565b9150611b37602084016119e9565b90509250929050565b600080600080600060a08688031215611b5857600080fd5b611b61866119e9565b9450611b6f602087016119e9565b9350604086013567ffffffffffffffff80821115611b8c57600080fd5b611b9889838a01611a83565b94506060880135915080821115611bae57600080fd5b611bba89838a01611a83565b93506080880135915080821115611bd057600080fd5b50611bdd88828901611aed565b9150509295509295909350565b600080600080600060a08688031215611c0257600080fd5b611c0b866119e9565b9450611c19602087016119e9565b93506040860135925060608601359150608086013567ffffffffffffffff811115611c4357600080fd5b611bdd88828901611aed565b600080600060608486031215611c6457600080fd5b611c6d846119e9565b9250602084013567ffffffffffffffff80821115611c8a57600080fd5b611c9687838801611a83565b93506040860135915080821115611cac57600080fd5b50611cb986828701611a83565b9150509250925092565b60008060408385031215611cd657600080fd5b611cdf836119e9565b915060208301358015158114611cf457600080fd5b809150509250929050565b60008060408385031215611d1257600080fd5b611d1b836119e9565b946020939093013593505050565b600080600060608486031215611d3e57600080fd5b611d47846119e9565b95602085013595506040909401359392505050565b60008060408385031215611d6f57600080fd5b823567ffffffffffffffff80821115611d8757600080fd5b611d9386838701611a05565b93506020850135915080821115611da957600080fd5b50611db685828601611a83565b9150509250929050565b600080600060608486031215611dd557600080fd5b833567ffffffffffffffff80821115611ded57600080fd5b611df987838801611a05565b94506020860135915080821115611c8a57600080fd5b600060208284031215611e2157600080fd5b5035919050565b60008060408385031215611e3b57600080fd5b82359150611b37602084016119e9565b600060208284031215611e5d57600080fd5b813561146581612460565b600060208284031215611e7a57600080fd5b815161146581612460565b600060208284031215611e9757600080fd5b813567ffffffffffffffff811115611eae57600080fd5b8201601f81018413611ebf57600080fd5b611ece8482356020840161198b565b949350505050565b600081518084526020808501945080840160005b83811015611f0657815187529582019590820190600101611eea565b509495945050505050565b60008151808452611f298160208601602086016122b2565b601f01601f19169290920160200192915050565b7f416363657373436f6e74726f6c3a206163636f756e7420000000000000000000815260008351611f758160178501602088016122b2565b7001034b99036b4b9b9b4b733903937b6329607d1b6017918401918201528351611fa68160288401602088016122b2565b01602801949350505050565b6001600160a01b0386811682528516602082015260a060408201819052600090611fde90830186611ed6565b8281036060840152611ff08186611ed6565b905082810360808401526120048185611f11565b98975050505050505050565b6001600160a01b03868116825285166020820152604081018490526060810183905260a06080820181905260009061204a90830184611f11565b979650505050505050565b6020815260006114656020830184611ed6565b60408152600061207b6040830185611ed6565b828103602084015261208d8185611ed6565b95945050505050565b6020815260006114656020830184611f11565b60208082526028908201527f455243313135353a204552433131353552656365697665722072656a656374656040820152676420746f6b656e7360c01b606082015260800190565b60208082526025908201527f455243313135353a207472616e7366657220746f20746865207a65726f206164604082015264647265737360d81b606082015260800190565b6020808252602e908201527f496e697469616c697a61626c653a20636f6e747261637420697320616c72656160408201526d191e481a5b9a5d1a585b1a5e995960921b606082015260800190565b6020808252602a908201527f455243313135353a20696e73756666696369656e742062616c616e636520666f60408201526939103a3930b739b332b960b11b606082015260800190565b60208082526028908201527f455243313135353a2069647320616e6420616d6f756e7473206c656e677468206040820152670dad2e6dac2e8c6d60c31b606082015260800190565b60208082526021908201527f455243313135353a206d696e7420746f20746865207a65726f206164647265736040820152607360f81b606082015260800190565b600067ffffffffffffffff821115612271576122716123a4565b5060051b60200190565b6000821982111561228e5761228e612378565b500190565b60008160001904831182151516156122ad576122ad612378565b500290565b60005b838110156122cd5781810151838201526020016122b5565b838111156104ed5750506000910152565b6000816122ed576122ed612378565b506000190190565b600181811c9082168061230957607f821691505b6020821081141561232a57634e487b7160e01b600052602260045260246000fd5b50919050565b601f8201601f1916810167ffffffffffffffff81118282101715612356576123566123a4565b6040525050565b600060001982141561237157612371612378565b5060010190565b634e487b7160e01b600052601160045260246000fd5b634e487b7160e01b600052603260045260246000fd5b634e487b7160e01b600052604160045260246000fd5b600060033d11156123d35760046000803e5060005160e01c5b90565b600060443d10156123e45790565b6040516003193d81016004833e81513d67ffffffffffffffff816024840111818411171561241457505050505090565b828501915081518181111561242c5750505050505090565b843d87010160208285010111156124465750505050505090565b61245560208286010187612330565b509095945050505050565b6001600160e01b031981168114610a4157600080fdfea2646970667358221220a379618dae3ada70f0c8619bc017d30b6bb996f7d2dde5c8283c3a9a4c1bfed764736f6c63430008060033",
  "linkReferences": {},
  "deployedLinkReferences": {}
}