{
  "_format": "hh-sol-artifact-1",
  "contractName": "Invite",
  "sourceName": "contracts/Invite.sol",
  "abi": [
    {
      "anonymous": false,
      "inputs": [
        {
          "indexed": true,
          "internalType": "address",
          "name": "owner",
          "type": "address"
        },
        {
          "indexed": true,
          "internalType": "address",
          "name": "approved",
          "type": "address"
        },
        {
          "indexed": true,
          "internalType": "uint256",
          "name": "tokenId",
          "type": "uint256"
        }
      ],
      "name": "Approval",
      "type": "event"
    },
    {
      "anonymous": false,
      "inputs": [
        {
          "indexed": true,
          "internalType": "address",
          "name": "owner",
          "type": "address"
        },
        {
          "indexed": true,
          "internalType": "address",
          "name": "operator",
          "type": "address"
        },
        {
          "indexed": false,
          "internalType": "bool",
          "name": "approved",
          "type": "bool"
        }
      ],
      "name": "ApprovalForAll",
      "type": "event"
    },
    {
      "anonymous": false,
      "inputs": [
        {
          "indexed": true,
          "internalType": "bytes32",
          "name": "role",
          "type": "bytes32"
        },
        {
          "indexed": true,
          "internalType": "bytes32",
          "name": "previousAdminRole",
          "type": "bytes32"
        },
        {
          "indexed": true,
          "internalType": "bytes32",
          "name": "newAdminRole",
          "type": "bytes32"
        }
      ],
      "name": "RoleAdminChanged",
      "type": "event"
    },
    {
      "anonymous": false,
      "inputs": [
        {
          "indexed": true,
          "internalType": "bytes32",
          "name": "role",
          "type": "bytes32"
        },
        {
          "indexed": true,
          "internalType": "address",
          "name": "account",
          "type": "address"
        },
        {
          "indexed": true,
          "internalType": "address",
          "name": "sender",
          "type": "address"
        }
      ],
      "name": "RoleGranted",
      "type": "event"
    },
    {
      "anonymous": false,
      "inputs": [
        {
          "indexed": true,
          "internalType": "bytes32",
          "name": "role",
          "type": "bytes32"
        },
        {
          "indexed": true,
          "internalType": "address",
          "name": "account",
          "type": "address"
        },
        {
          "indexed": true,
          "internalType": "address",
          "name": "sender",
          "type": "address"
        }
      ],
      "name": "RoleRevoked",
      "type": "event"
    },
    {
      "anonymous": false,
      "inputs": [
        {
          "indexed": true,
          "internalType": "address",
          "name": "from",
          "type": "address"
        },
        {
          "indexed": true,
          "internalType": "address",
          "name": "to",
          "type": "address"
        },
        {
          "indexed": true,
          "internalType": "uint256",
          "name": "tokenId",
          "type": "uint256"
        }
      ],
      "name": "Transfer",
      "type": "event"
    },
    {
      "inputs": [],
      "name": "DEFAULT_ADMIN_ROLE",
      "outputs": [
        {
          "internalType": "bytes32",
          "name": "",
          "type": "bytes32"
        }
      ],
      "stateMutability": "view",
      "type": "function"
    },
    {
      "inputs": [
        {
          "internalType": "address",
          "name": "to",
          "type": "address"
        },
        {
          "internalType": "uint256",
          "name": "tokenId",
          "type": "uint256"
        }
      ],
      "name": "approve",
      "outputs": [],
      "stateMutability": "nonpayable",
      "type": "function"
    },
    {
      "inputs": [
        {
          "internalType": "address",
          "name": "owner",
          "type": "address"
        }
      ],
      "name": "balanceOf",
      "outputs": [
        {
          "internalType": "uint256",
          "name": "",
          "type": "uint256"
        }
      ],
      "stateMutability": "view",
      "type": "function"
    },
    {
      "inputs": [
        {
          "internalType": "uint256",
          "name": "tokenId",
          "type": "uint256"
        }
      ],
      "name": "getApproved",
      "outputs": [
        {
          "internalType": "address",
          "name": "",
          "type": "address"
        }
      ],
      "stateMutability": "view",
      "type": "function"
    },
    {
      "inputs": [
        {
          "internalType": "bytes32",
          "name": "role",
          "type": "bytes32"
        }
      ],
      "name": "getRoleAdmin",
      "outputs": [
        {
          "internalType": "bytes32",
          "name": "",
          "type": "bytes32"
        }
      ],
      "stateMutability": "view",
      "type": "function"
    },
    {
      "inputs": [
        {
          "internalType": "bytes32",
          "name": "role",
          "type": "bytes32"
        },
        {
          "internalType": "address",
          "name": "account",
          "type": "address"
        }
      ],
      "name": "grantRole",
      "outputs": [],
      "stateMutability": "nonpayable",
      "type": "function"
    },
    {
      "inputs": [
        {
          "internalType": "bytes32",
          "name": "role",
          "type": "bytes32"
        },
        {
          "internalType": "address",
          "name": "account",
          "type": "address"
        }
      ],
      "name": "hasRole",
      "outputs": [
        {
          "internalType": "bool",
          "name": "",
          "type": "bool"
        }
      ],
      "stateMutability": "view",
      "type": "function"
    },
    {
      "inputs": [
        {
          "internalType": "string",
          "name": "name",
          "type": "string"
        },
        {
          "internalType": "string",
          "name": "symbol",
          "type": "string"
        },
        {
          "internalType": "string",
          "name": "baseTokenURI",
          "type": "string"
        }
      ],
      "name": "initialize",
      "outputs": [],
      "stateMutability": "nonpayable",
      "type": "function"
    },
    {
      "inputs": [
        {
          "internalType": "address",
          "name": "owner",
          "type": "address"
        },
        {
          "internalType": "address",
          "name": "operator",
          "type": "address"
        }
      ],
      "name": "isApprovedForAll",
      "outputs": [
        {
          "internalType": "bool",
          "name": "",
          "type": "bool"
        }
      ],
      "stateMutability": "view",
      "type": "function"
    },
    {
      "inputs": [
        {
          "internalType": "uint256",
          "name": "_tokenId",
          "type": "uint256"
        }
      ],
      "name": "isRedeemed",
      "outputs": [
        {
          "internalType": "bool",
          "name": "",
          "type": "bool"
        }
      ],
      "stateMutability": "view",
      "type": "function"
    },
    {
      "inputs": [
        {
          "internalType": "uint256",
          "name": "tokenId",
          "type": "uint256"
        },
        {
          "internalType": "address",
          "name": "redeemer",
          "type": "address"
        }
      ],
      "name": "isRedeemedBy",
      "outputs": [
        {
          "internalType": "bool",
          "name": "",
          "type": "bool"
        }
      ],
      "stateMutability": "view",
      "type": "function"
    },
    {
      "inputs": [
        {
          "internalType": "address",
          "name": "to",
          "type": "address"
        },
        {
          "internalType": "uint256",
          "name": "tokenId",
          "type": "uint256"
        }
      ],
      "name": "mint",
      "outputs": [],
      "stateMutability": "nonpayable",
      "type": "function"
    },
    {
      "inputs": [
        {
          "internalType": "address[]",
          "name": "tos",
          "type": "address[]"
        },
        {
          "internalType": "uint256[]",
          "name": "tokenIds",
          "type": "uint256[]"
        }
      ],
      "name": "mintBatch",
      "outputs": [],
      "stateMutability": "nonpayable",
      "type": "function"
    },
    {
      "inputs": [],
      "name": "name",
      "outputs": [
        {
          "internalType": "string",
          "name": "",
          "type": "string"
        }
      ],
      "stateMutability": "view",
      "type": "function"
    },
    {
      "inputs": [
        {
          "internalType": "uint256",
          "name": "tokenId",
          "type": "uint256"
        }
      ],
      "name": "ownerOf",
      "outputs": [
        {
          "internalType": "address",
          "name": "",
          "type": "address"
        }
      ],
      "stateMutability": "view",
      "type": "function"
    },
    {
      "inputs": [
        {
          "internalType": "uint256",
          "name": "_tokenId",
          "type": "uint256"
        }
      ],
      "name": "redeem",
      "outputs": [],
      "stateMutability": "nonpayable",
      "type": "function"
    },
    {
      "inputs": [
        {
          "internalType": "bytes32",
          "name": "role",
          "type": "bytes32"
        },
        {
          "internalType": "address",
          "name": "account",
          "type": "address"
        }
      ],
      "name": "renounceRole",
      "outputs": [],
      "stateMutability": "nonpayable",
      "type": "function"
    },
    {
      "inputs": [
        {
          "internalType": "bytes32",
          "name": "role",
          "type": "bytes32"
        },
        {
          "internalType": "address",
          "name": "account",
          "type": "address"
        }
      ],
      "name": "revokeRole",
      "outputs": [],
      "stateMutability": "nonpayable",
      "type": "function"
    },
    {
      "inputs": [
        {
          "internalType": "address",
          "name": "from",
          "type": "address"
        },
        {
          "internalType": "address",
          "name": "to",
          "type": "address"
        },
        {
          "internalType": "uint256",
          "name": "tokenId",
          "type": "uint256"
        }
      ],
      "name": "safeTransferFrom",
      "outputs": [],
      "stateMutability": "nonpayable",
      "type": "function"
    },
    {
      "inputs": [
        {
          "internalType": "address",
          "name": "from",
          "type": "address"
        },
        {
          "internalType": "address",
          "name": "to",
          "type": "address"
        },
        {
          "internalType": "uint256",
          "name": "tokenId",
          "type": "uint256"
        },
        {
          "internalType": "bytes",
          "name": "_data",
          "type": "bytes"
        }
      ],
      "name": "safeTransferFrom",
      "outputs": [],
      "stateMutability": "nonpayable",
      "type": "function"
    },
    {
      "inputs": [
        {
          "internalType": "address",
          "name": "operator",
          "type": "address"
        },
        {
          "internalType": "bool",
          "name": "approved",
          "type": "bool"
        }
      ],
      "name": "setApprovalForAll",
      "outputs": [],
      "stateMutability": "nonpayable",
      "type": "function"
    },
    {
      "inputs": [
        {
          "internalType": "bytes4",
          "name": "interfaceId",
          "type": "bytes4"
        }
      ],
      "name": "supportsInterface",
      "outputs": [
        {
          "internalType": "bool",
          "name": "",
          "type": "bool"
        }
      ],
      "stateMutability": "view",
      "type": "function"
    },
    {
      "inputs": [],
      "name": "symbol",
      "outputs": [
        {
          "internalType": "string",
          "name": "",
          "type": "string"
        }
      ],
      "stateMutability": "view",
      "type": "function"
    },
    {
      "inputs": [
        {
          "internalType": "uint256",
          "name": "tokenId",
          "type": "uint256"
        }
      ],
      "name": "tokenURI",
      "outputs": [
        {
          "internalType": "string",
          "name": "",
          "type": "string"
        }
      ],
      "stateMutability": "view",
      "type": "function"
    },
    {
      "inputs": [
        {
          "internalType": "address",
          "name": "from",
          "type": "address"
        },
        {
          "internalType": "address",
          "name": "to",
          "type": "address"
        },
        {
          "internalType": "uint256",
          "name": "tokenId",
          "type": "uint256"
        }
      ],
      "name": "transferFrom",
      "outputs": [],
      "stateMutability": "nonpayable",
      "type": "function"
    }
  ],
  "bytecode": "0x608060405234801561001057600080fd5b506121c5806100206000396000f3fe608060405234801561001057600080fd5b50600436106101735760003560e01c806370a08231116100de578063a6487c5311610097578063c87b56dd11610071578063c87b56dd14610374578063d547741f14610387578063db006a751461039a578063e985e9c5146103ad57600080fd5b8063a6487c531461031f578063b88d4fde14610332578063c71679b51461034557600080fd5b806370a08231146102c35780637c88e3d9146102d657806391d14854146102e957806395d89b41146102fc578063a217fddf14610304578063a22cb4651461030c57600080fd5b80632f2ff15d116101305780632f2ff15d1461023957806332d33cd01461024c57806336568abe1461027757806340c10f191461028a57806342842e0e1461029d5780636352211e146102b057600080fd5b806301ffc9a71461017857806306fdde03146101a0578063081812fc146101b5578063095ea7b3146101e057806323b872dd146101f5578063248a9ca314610208575b600080fd5b61018b610186366004611cea565b6103e9565b60405190151581526020015b60405180910390f35b6101a86103fa565b6040516101979190611eb9565b6101c86101c3366004611cae565b61048c565b6040516001600160a01b039091168152602001610197565b6101f36101ee366004611bbd565b610526565b005b6101f3610203366004611ac9565b61063c565b61022b610216366004611cae565b60009081526065602052604090206001015490565b604051908152602001610197565b6101f3610247366004611cc7565b61066d565b61018b61025a366004611cae565b600090815260c960205260409020546001600160a01b0316151590565b6101f3610285366004611cc7565b610693565b6101f3610298366004611bbd565b610711565b6101f36102ab366004611ac9565b610727565b6101c86102be366004611cae565b610742565b61022b6102d1366004611a7b565b6107b9565b6101f36102e4366004611be7565b610840565b61018b6102f7366004611cc7565b6108ba565b6101a86108e5565b61022b600081565b6101f361031a366004611b81565b6108f4565b6101f361032d366004611d24565b6109b9565b6101f3610340366004611b05565b610a32565b61018b610353366004611cc7565b600091825260c96020526040909120546001600160a01b0391821691161490565b6101a8610382366004611cae565b610a64565b6101f3610395366004611cc7565b610b3f565b6101f36103a8366004611cae565b610b65565b61018b6103bb366004611a96565b6001600160a01b039182166000908152609c6020908152604080832093909416825291909152205460ff1690565b60006103f482610be1565b92915050565b606060978054610409906120b7565b80601f0160208091040260200160405190810160405280929190818152602001828054610435906120b7565b80156104825780601f1061045757610100808354040283529160200191610482565b820191906000526020600020905b81548152906001019060200180831161046557829003601f168201915b5050505050905090565b6000818152609960205260408120546001600160a01b031661050a5760405162461bcd60e51b815260206004820152602c60248201527f4552433732313a20617070726f76656420717565727920666f72206e6f6e657860448201526b34b9ba32b73a103a37b5b2b760a11b60648201526084015b60405180910390fd5b506000908152609b60205260409020546001600160a01b031690565b600061053182610742565b9050806001600160a01b0316836001600160a01b0316141561059f5760405162461bcd60e51b815260206004820152602160248201527f4552433732313a20617070726f76616c20746f2063757272656e74206f776e656044820152603960f91b6064820152608401610501565b336001600160a01b03821614806105bb57506105bb81336103bb565b61062d5760405162461bcd60e51b815260206004820152603860248201527f4552433732313a20617070726f76652063616c6c6572206973206e6f74206f7760448201527f6e6572206e6f7220617070726f76656420666f7220616c6c00000000000000006064820152608401610501565b6106378383610c21565b505050565b6106463382610c8f565b6106625760405162461bcd60e51b815260040161050190611f6c565b610637838383610d86565b6000828152606560205260409020600101546106898133610f31565b6106378383610f95565b6001600160a01b03811633146107035760405162461bcd60e51b815260206004820152602f60248201527f416363657373436f6e74726f6c3a2063616e206f6e6c792072656e6f756e636560448201526e103937b632b9903337b91039b2b63360891b6064820152608401610501565b61070d828261101b565b5050565b600061071d8133610f31565b6106378383611082565b61063783838360405180602001604052806000815250610a32565b6000818152609960205260408120546001600160a01b0316806103f45760405162461bcd60e51b815260206004820152602960248201527f4552433732313a206f776e657220717565727920666f72206e6f6e657869737460448201526832b73a103a37b5b2b760b91b6064820152608401610501565b60006001600160a01b0382166108245760405162461bcd60e51b815260206004820152602a60248201527f4552433732313a2062616c616e636520717565727920666f7220746865207a65604482015269726f206164647265737360b01b6064820152608401610501565b506001600160a01b03166000908152609a602052604090205490565b600061084c8133610f31565b815183511461085a57600080fd5b60005b83518110156108b4576108a284828151811061087b5761087b61214d565b60200260200101518483815181106108955761089561214d565b6020026020010151611082565b806108ac816120f2565b91505061085d565b50505050565b60009182526065602090815260408084206001600160a01b0393909316845291905290205460ff1690565b606060988054610409906120b7565b6001600160a01b03821633141561094d5760405162461bcd60e51b815260206004820152601960248201527f4552433732313a20617070726f766520746f2063616c6c6572000000000000006044820152606401610501565b336000818152609c602090815260408083206001600160a01b03871680855290835292819020805460ff191686151590811790915590519081529192917f17307eab39ab6107e8899845ad3d59bd9653f200f220920489ca2b5937696c31910160405180910390a35050565b600054610100900460ff16806109d2575060005460ff16155b6109ee5760405162461bcd60e51b815260040161050190611f1e565b600054610100900460ff16158015610a10576000805461ffff19166101011790555b610a1b8484846111d0565b80156108b4576000805461ff001916905550505050565b610a3c3383610c8f565b610a585760405162461bcd60e51b815260040161050190611f6c565b6108b48484848461124a565b6000818152609960205260409020546060906001600160a01b0316610ae35760405162461bcd60e51b815260206004820152602f60248201527f4552433732314d657461646174613a2055524920717565727920666f72206e6f60448201526e3732bc34b9ba32b73a103a37b5b2b760891b6064820152608401610501565b6000610aed61127d565b90506000815111610b0d5760405180602001604052806000815250610b38565b80610b178461128c565b604051602001610b28929190611dd8565b6040516020818303038152906040525b9392505050565b600082815260656020526040902060010154610b5b8133610f31565b610637838361101b565b610b6f3382610c8f565b610bd55760405162461bcd60e51b815260206004820152603160248201527f496e766974653a207472616e736665722063616c6c6572206973206e6f74206f6044820152701ddb995c881b9bdc88185c1c1c9bdd9959607a1b6064820152608401610501565b610bde8161138a565b50565b60006001600160e01b031982166380ac58cd60e01b1480610c1257506001600160e01b03198216635b5e139f60e01b145b806103f457506103f4826113cc565b6000818152609b6020526040902080546001600160a01b0319166001600160a01b0384169081179091558190610c5682610742565b6001600160a01b03167f8c5be1e5ebec7d5bd14f71427d1e84f3dd0314c0f7b2291e5b200ac8c7c3b92560405160405180910390a45050565b6000818152609960205260408120546001600160a01b0316610d085760405162461bcd60e51b815260206004820152602c60248201527f4552433732313a206f70657261746f7220717565727920666f72206e6f6e657860448201526b34b9ba32b73a103a37b5b2b760a11b6064820152608401610501565b6000610d1383610742565b9050806001600160a01b0316846001600160a01b03161480610d4e5750836001600160a01b0316610d438461048c565b6001600160a01b0316145b80610d7e57506001600160a01b038082166000908152609c602090815260408083209388168352929052205460ff165b949350505050565b826001600160a01b0316610d9982610742565b6001600160a01b031614610e015760405162461bcd60e51b815260206004820152602960248201527f4552433732313a207472616e73666572206f6620746f6b656e2074686174206960448201526839903737ba1037bbb760b91b6064820152608401610501565b6001600160a01b038216610e635760405162461bcd60e51b8152602060048201526024808201527f4552433732313a207472616e7366657220746f20746865207a65726f206164646044820152637265737360e01b6064820152608401610501565b610e6e838383611401565b610e79600082610c21565b6001600160a01b0383166000908152609a60205260408120805460019290610ea290849061205d565b90915550506001600160a01b0382166000908152609a60205260408120805460019290610ed0908490612012565b909155505060008181526099602052604080822080546001600160a01b0319166001600160a01b0386811691821790925591518493918716917fddf252ad1be2c89b69c2b068fc378daa952ba7f163c4a11628f55a4df523b3ef91a4505050565b610f3b82826108ba565b61070d57610f53816001600160a01b0316601461149e565b610f5e83602061149e565b604051602001610f6f929190611e07565b60408051601f198184030181529082905262461bcd60e51b825261050191600401611eb9565b610f9f82826108ba565b61070d5760008281526065602090815260408083206001600160a01b03851684529091529020805460ff19166001179055610fd73390565b6001600160a01b0316816001600160a01b0316837f2f8788117e7eff1d82e926ec794901d17c78024a50270940304540a733656f0d60405160405180910390a45050565b61102582826108ba565b1561070d5760008281526065602090815260408083206001600160a01b0385168085529252808320805460ff1916905551339285917ff6391f5c32d9c69d2a47ea670b442974b53935d1edc7fd64eb21e047a839171b9190a45050565b6001600160a01b0382166110d85760405162461bcd60e51b815260206004820181905260248201527f4552433732313a206d696e7420746f20746865207a65726f20616464726573736044820152606401610501565b6000818152609960205260409020546001600160a01b03161561113d5760405162461bcd60e51b815260206004820152601c60248201527f4552433732313a20746f6b656e20616c7265616479206d696e746564000000006044820152606401610501565b61114960008383611401565b6001600160a01b0382166000908152609a60205260408120805460019290611172908490612012565b909155505060008181526099602052604080822080546001600160a01b0319166001600160a01b03861690811790915590518392907fddf252ad1be2c89b69c2b068fc378daa952ba7f163c4a11628f55a4df523b3ef908290a45050565b600054610100900460ff16806111e9575060005460ff16155b6112055760405162461bcd60e51b815260040161050190611f1e565b600054610100900460ff16158015611227576000805461ffff19166101011790555b61122f61163a565b61123761163a565b61124184846116a5565b610a1b8261173a565b611255848484610d86565b611261848484846117c5565b6108b45760405162461bcd60e51b815260040161050190611ecc565b606060ca8054610409906120b7565b6060816112b05750506040805180820190915260018152600360fc1b602082015290565b8160005b81156112da57806112c4816120f2565b91506112d39050600a8361202a565b91506112b4565b60008167ffffffffffffffff8111156112f5576112f5612163565b6040519080825280601f01601f19166020018201604052801561131f576020820181803683370190505b5090505b8415610d7e5761133460018361205d565b9150611341600a8661210d565b61134c906030612012565b60f81b8183815181106113615761136161214d565b60200101906001600160f81b031916908160001a905350611383600a8661202a565b9450611323565b600081815260c960205260409020546001600160a01b0316156113ac57600080fd5b600090815260c96020526040902080546001600160a01b03191633179055565b60006001600160e01b03198216637965db0b60e01b14806103f457506301ffc9a760e01b6001600160e01b03198316146103f4565b600081815260c960205260409020546001600160a01b031615158061143b57506000818152609960205260409020546001600160a01b0316155b6106375760405162461bcd60e51b815260206004820152602e60248201527f496e766974653a20546f6b656e206d7573742062652072656465656d6564206260448201526d32b337b932903a3930b739b332b960911b6064820152608401610501565b606060006114ad83600261203e565b6114b8906002612012565b67ffffffffffffffff8111156114d0576114d0612163565b6040519080825280601f01601f1916602001820160405280156114fa576020820181803683370190505b509050600360fc1b816000815181106115155761151561214d565b60200101906001600160f81b031916908160001a905350600f60fb1b816001815181106115445761154461214d565b60200101906001600160f81b031916908160001a905350600061156884600261203e565b611573906001612012565b90505b60018111156115eb576f181899199a1a9b1b9c1cb0b131b232b360811b85600f16601081106115a7576115a761214d565b1a60f81b8282815181106115bd576115bd61214d565b60200101906001600160f81b031916908160001a90535060049490941c936115e4816120a0565b9050611576565b508315610b385760405162461bcd60e51b815260206004820181905260248201527f537472696e67733a20686578206c656e67746820696e73756666696369656e746044820152606401610501565b600054610100900460ff1680611653575060005460ff16155b61166f5760405162461bcd60e51b815260040161050190611f1e565b600054610100900460ff16158015611691576000805461ffff19166101011790555b8015610bde576000805461ff001916905550565b600054610100900460ff16806116be575060005460ff16155b6116da5760405162461bcd60e51b815260040161050190611f1e565b600054610100900460ff161580156116fc576000805461ffff19166101011790555b825161170f9060979060208601906118dc565b5081516117239060989060208501906118dc565b508015610637576000805461ff0019169055505050565b600054610100900460ff1680611753575060005460ff16155b61176f5760405162461bcd60e51b815260040161050190611f1e565b600054610100900460ff16158015611791576000805461ffff19166101011790555b81516117a49060ca9060208501906118dc565b506117b06000336118d2565b801561070d576000805461ff00191690555050565b60006001600160a01b0384163b156118c757604051630a85bd0160e11b81526001600160a01b0385169063150b7a0290611809903390899088908890600401611e7c565b602060405180830381600087803b15801561182357600080fd5b505af1925050508015611853575060408051601f3d908101601f1916820190925261185091810190611d07565b60015b6118ad573d808015611881576040519150601f19603f3d011682016040523d82523d6000602084013e611886565b606091505b5080516118a55760405162461bcd60e51b815260040161050190611ecc565b805181602001fd5b6001600160e01b031916630a85bd0160e11b149050610d7e565b506001949350505050565b61070d8282610f95565b8280546118e8906120b7565b90600052602060002090601f01602090048101928261190a5760008555611950565b82601f1061192357805160ff1916838001178555611950565b82800160010185558215611950579182015b82811115611950578251825591602001919060010190611935565b5061195c929150611960565b5090565b5b8082111561195c5760008155600101611961565b600067ffffffffffffffff83111561198f5761198f612163565b6119a2601f8401601f1916602001611fbd565b90508281528383830111156119b657600080fd5b828260208301376000602084830101529392505050565b80356001600160a01b03811681146119e457600080fd5b919050565b600082601f8301126119fa57600080fd5b81356020611a0f611a0a83611fee565b611fbd565b80838252828201915082860187848660051b8901011115611a2f57600080fd5b60005b85811015611a4e57813584529284019290840190600101611a32565b5090979650505050505050565b600082601f830112611a6c57600080fd5b610b3883833560208501611975565b600060208284031215611a8d57600080fd5b610b38826119cd565b60008060408385031215611aa957600080fd5b611ab2836119cd565b9150611ac0602084016119cd565b90509250929050565b600080600060608486031215611ade57600080fd5b611ae7846119cd565b9250611af5602085016119cd565b9150604084013590509250925092565b60008060008060808587031215611b1b57600080fd5b611b24856119cd565b9350611b32602086016119cd565b925060408501359150606085013567ffffffffffffffff811115611b5557600080fd5b8501601f81018713611b6657600080fd5b611b7587823560208401611975565b91505092959194509250565b60008060408385031215611b9457600080fd5b611b9d836119cd565b915060208301358015158114611bb257600080fd5b809150509250929050565b60008060408385031215611bd057600080fd5b611bd9836119cd565b946020939093013593505050565b60008060408385031215611bfa57600080fd5b823567ffffffffffffffff80821115611c1257600080fd5b818501915085601f830112611c2657600080fd5b81356020611c36611a0a83611fee565b8083825282820191508286018a848660051b8901011115611c5657600080fd5b600096505b84871015611c8057611c6c816119cd565b835260019690960195918301918301611c5b565b5096505086013592505080821115611c9757600080fd5b50611ca4858286016119e9565b9150509250929050565b600060208284031215611cc057600080fd5b5035919050565b60008060408385031215611cda57600080fd5b82359150611ac0602084016119cd565b600060208284031215611cfc57600080fd5b8135610b3881612179565b600060208284031215611d1957600080fd5b8151610b3881612179565b600080600060608486031215611d3957600080fd5b833567ffffffffffffffff80821115611d5157600080fd5b611d5d87838801611a5b565b94506020860135915080821115611d7357600080fd5b611d7f87838801611a5b565b93506040860135915080821115611d9557600080fd5b50611da286828701611a5b565b9150509250925092565b60008151808452611dc4816020860160208601612074565b601f01601f19169290920160200192915050565b60008351611dea818460208801612074565b835190830190611dfe818360208801612074565b01949350505050565b7f416363657373436f6e74726f6c3a206163636f756e7420000000000000000000815260008351611e3f816017850160208801612074565b7001034b99036b4b9b9b4b733903937b6329607d1b6017918401918201528351611e70816028840160208801612074565b01602801949350505050565b6001600160a01b0385811682528416602082015260408101839052608060608201819052600090611eaf90830184611dac565b9695505050505050565b602081526000610b386020830184611dac565b60208082526032908201527f4552433732313a207472616e7366657220746f206e6f6e20455243373231526560408201527131b2b4bb32b91034b6b83632b6b2b73a32b960711b606082015260800190565b6020808252602e908201527f496e697469616c697a61626c653a20636f6e747261637420697320616c72656160408201526d191e481a5b9a5d1a585b1a5e995960921b606082015260800190565b60208082526031908201527f4552433732313a207472616e736665722063616c6c6572206973206e6f74206f6040820152701ddb995c881b9bdc88185c1c1c9bdd9959607a1b606082015260800190565b604051601f8201601f1916810167ffffffffffffffff81118282101715611fe657611fe6612163565b604052919050565b600067ffffffffffffffff82111561200857612008612163565b5060051b60200190565b6000821982111561202557612025612121565b500190565b60008261203957612039612137565b500490565b600081600019048311821515161561205857612058612121565b500290565b60008282101561206f5761206f612121565b500390565b60005b8381101561208f578181015183820152602001612077565b838111156108b45750506000910152565b6000816120af576120af612121565b506000190190565b600181811c908216806120cb57607f821691505b602082108114156120ec57634e487b7160e01b600052602260045260246000fd5b50919050565b600060001982141561210657612106612121565b5060010190565b60008261211c5761211c612137565b500690565b634e487b7160e01b600052601160045260246000fd5b634e487b7160e01b600052601260045260246000fd5b634e487b7160e01b600052603260045260246000fd5b634e487b7160e01b600052604160045260246000fd5b6001600160e01b031981168114610bde57600080fdfea2646970667358221220fc3257cfce39aeeb6273635ee803cc6489f3e8436d4318f68d9f730de71f31dd64736f6c63430008060033",
  "linkReferences": {},
  "deployedLinkReferences": {}
}